{
  "_format": "hh-sol-artifact-1",
  "contractName": "StoryOwnership",
  "sourceName": "Contracts/Ownership.sol",
  "abi": [
    {
      "inputs": [],
      "stateMutability": "nonpayable",
      "type": "constructor"
    },
    {
      "anonymous": false,
      "inputs": [
        {
          "indexed": true,
          "internalType": "address",
          "name": "contributor",
          "type": "address"
        },
        {
          "indexed": false,
          "internalType": "string",
          "name": "content",
          "type": "string"
        },
        {
          "indexed": false,
          "internalType": "uint256",
          "name": "timestamp",
          "type": "uint256"
        }
      ],
      "name": "ContributionAdded",
      "type": "event"
    },
    {
      "inputs": [
        {
          "internalType": "string",
          "name": "content",
          "type": "string"
        }
      ],
      "name": "addContribution",
      "outputs": [],
      "stateMutability": "nonpayable",
      "type": "function"
    },
    {
      "inputs": [
        {
          "internalType": "uint256",
          "name": "",
          "type": "uint256"
        }
      ],
      "name": "contributions",
      "outputs": [
        {
          "internalType": "address",
          "name": "contributor",
          "type": "address"
        },
        {
          "internalType": "string",
          "name": "content",
          "type": "string"
        },
        {
          "internalType": "uint256",
          "name": "timestamp",
          "type": "uint256"
        }
      ],
      "stateMutability": "view",
      "type": "function"
    },
    {
      "inputs": [],
      "name": "getAllContributions",
      "outputs": [
        {
          "components": [
            {
              "internalType": "address",
              "name": "contributor",
              "type": "address"
            },
            {
              "internalType": "string",
              "name": "content",
              "type": "string"
            },
            {
              "internalType": "uint256",
              "name": "timestamp",
              "type": "uint256"
            }
          ],
          "internalType": "struct StoryOwnership.Contribution[]",
          "name": "",
          "type": "tuple[]"
        }
      ],
      "stateMutability": "view",
      "type": "function"
    },
    {
      "inputs": [
        {
          "internalType": "uint256",
          "name": "index",
          "type": "uint256"
        }
      ],
      "name": "getContribution",
      "outputs": [
        {
          "internalType": "address",
          "name": "contributor",
          "type": "address"
        },
        {
          "internalType": "string",
          "name": "content",
          "type": "string"
        },
        {
          "internalType": "uint256",
          "name": "timestamp",
          "type": "uint256"
        }
      ],
      "stateMutability": "view",
      "type": "function"
    },
    {
      "inputs": [],
      "name": "getTotalContributions",
      "outputs": [
        {
          "internalType": "uint256",
          "name": "",
          "type": "uint256"
        }
      ],
      "stateMutability": "view",
      "type": "function"
    },
    {
      "inputs": [
        {
          "internalType": "address",
          "name": "user",
          "type": "address"
        }
      ],
      "name": "getUserContributions",
      "outputs": [
        {
          "internalType": "uint256",
          "name": "",
          "type": "uint256"
        }
      ],
      "stateMutability": "view",
      "type": "function"
    },
    {
      "inputs": [],
      "name": "owner",
      "outputs": [
        {
          "internalType": "address",
          "name": "",
          "type": "address"
        }
      ],
      "stateMutability": "view",
      "type": "function"
    },
    {
      "inputs": [
        {
          "internalType": "address",
          "name": "",
          "type": "address"
        }
      ],
      "name": "userContributions",
      "outputs": [
        {
          "internalType": "uint256",
          "name": "",
          "type": "uint256"
        }
      ],
      "stateMutability": "view",
      "type": "function"
    }
  ],
  "bytecode": "0x6080604052348015600f57600080fd5b5033600260006101000a81548173ffffffffffffffffffffffffffffffffffffffff021916908373ffffffffffffffffffffffffffffffffffffffff16021790555061122e806100606000396000f3fe608060405234801561001057600080fd5b50600436106100885760003560e01c80638da5cb5b1161005b5780638da5cb5b14610129578063cef4225414610147578063ddf556d014610179578063e36465a31461019757610088565b80630f6ca1a81461008d5780631cee0700146100bd57806337f3061d146100ef5780635e3b54f11461010d575b600080fd5b6100a760048036038101906100a2919061088e565b6101c7565b6040516100b491906108d4565b60405180910390f35b6100d760048036038101906100d2919061091b565b6101df565b6040516100e6939291906109e7565b60405180910390f35b6100f76102c1565b6040516101049190610b9f565b60405180910390f35b61012760048036038101906101229190610cf6565b6104a2565b005b610131610616565b60405161013e9190610d3f565b60405180910390f35b610161600480360381019061015c919061091b565b61063c565b604051610170939291906109e7565b60405180910390f35b6101816107c7565b60405161018e91906108d4565b60405180910390f35b6101b160048036038101906101ac919061088e565b6107d3565b6040516101be91906108d4565b60405180910390f35b60016020528060005260406000206000915090505481565b600081815481106101ef57600080fd5b90600052602060002090600302016000915090508060000160009054906101000a900473ffffffffffffffffffffffffffffffffffffffff169080600101805461023890610d89565b80601f016020809104026020016040519081016040528092919081815260200182805461026490610d89565b80156102b15780601f10610286576101008083540402835291602001916102b1565b820191906000526020600020905b81548152906001019060200180831161029457829003601f168201915b5050505050908060020154905083565b6060600260009054906101000a900473ffffffffffffffffffffffffffffffffffffffff1673ffffffffffffffffffffffffffffffffffffffff163373ffffffffffffffffffffffffffffffffffffffff1614610353576040517f08c379a000000000000000000000000000000000000000000000000000000000815260040161034a90610e2c565b60405180910390fd5b6000805480602002602001604051908101604052809291908181526020016000905b8282101561049957838290600052602060002090600302016040518060600160405290816000820160009054906101000a900473ffffffffffffffffffffffffffffffffffffffff1673ffffffffffffffffffffffffffffffffffffffff1673ffffffffffffffffffffffffffffffffffffffff1681526020016001820180546103fe90610d89565b80601f016020809104026020016040519081016040528092919081815260200182805461042a90610d89565b80156104775780601f1061044c57610100808354040283529160200191610477565b820191906000526020600020905b81548152906001019060200180831161045a57829003601f168201915b5050505050815260200160028201548152505081526020019060010190610375565b50505050905090565b6000429050600060405180606001604052803373ffffffffffffffffffffffffffffffffffffffff16815260200184815260200183815250908060018154018082558091505060019003906000526020600020906003020160009091909190915060008201518160000160006101000a81548173ffffffffffffffffffffffffffffffffffffffff021916908373ffffffffffffffffffffffffffffffffffffffff160217905550602082015181600101908161055f9190610ff8565b5060408201518160020155505060018060003373ffffffffffffffffffffffffffffffffffffffff1673ffffffffffffffffffffffffffffffffffffffff16815260200190815260200160002060008282546105bb91906110f9565b925050819055503373ffffffffffffffffffffffffffffffffffffffff167f05cb1467f40a23b5a25cf6a0fa7c540adbb3b569befda1e64cf5fb6a84fde69c838360405161060a92919061112d565b60405180910390a25050565b600260009054906101000a900473ffffffffffffffffffffffffffffffffffffffff1681565b60006060600080805490508410610688576040517f08c379a000000000000000000000000000000000000000000000000000000000815260040161067f906111a9565b60405180910390fd5b600080858154811061069d5761069c6111c9565b5b90600052602060002090600302016040518060600160405290816000820160009054906101000a900473ffffffffffffffffffffffffffffffffffffffff1673ffffffffffffffffffffffffffffffffffffffff1673ffffffffffffffffffffffffffffffffffffffff16815260200160018201805461071c90610d89565b80601f016020809104026020016040519081016040528092919081815260200182805461074890610d89565b80156107955780601f1061076a57610100808354040283529160200191610795565b820191906000526020600020905b81548152906001019060200180831161077857829003601f168201915b505050505081526020016002820154815250509050806000015181602001518260400151935093509350509193909250565b60008080549050905090565b6000600160008373ffffffffffffffffffffffffffffffffffffffff1673ffffffffffffffffffffffffffffffffffffffff168152602001908152602001600020549050919050565b6000604051905090565b600080fd5b600080fd5b600073ffffffffffffffffffffffffffffffffffffffff82169050919050565b600061085b82610830565b9050919050565b61086b81610850565b811461087657600080fd5b50565b60008135905061088881610862565b92915050565b6000602082840312156108a4576108a3610826565b5b60006108b284828501610879565b91505092915050565b6000819050919050565b6108ce816108bb565b82525050565b60006020820190506108e960008301846108c5565b92915050565b6108f8816108bb565b811461090357600080fd5b50565b600081359050610915816108ef565b92915050565b60006020828403121561093157610930610826565b5b600061093f84828501610906565b91505092915050565b61095181610850565b82525050565b600081519050919050565b600082825260208201905092915050565b60005b83811015610991578082015181840152602081019050610976565b60008484015250505050565b6000601f19601f8301169050919050565b60006109b982610957565b6109c38185610962565b93506109d3818560208601610973565b6109dc8161099d565b840191505092915050565b60006060820190506109fc6000830186610948565b8181036020830152610a0e81856109ae565b9050610a1d60408301846108c5565b949350505050565b600081519050919050565b600082825260208201905092915050565b6000819050602082019050919050565b610a5a81610850565b82525050565b600082825260208201905092915050565b6000610a7c82610957565b610a868185610a60565b9350610a96818560208601610973565b610a9f8161099d565b840191505092915050565b610ab3816108bb565b82525050565b6000606083016000830151610ad16000860182610a51565b5060208301518482036020860152610ae98282610a71565b9150506040830151610afe6040860182610aaa565b508091505092915050565b6000610b158383610ab9565b905092915050565b6000602082019050919050565b6000610b3582610a25565b610b3f8185610a30565b935083602082028501610b5185610a41565b8060005b85811015610b8d5784840389528151610b6e8582610b09565b9450610b7983610b1d565b925060208a01995050600181019050610b55565b50829750879550505050505092915050565b60006020820190508181036000830152610bb98184610b2a565b905092915050565b600080fd5b600080fd5b7f4e487b7100000000000000000000000000000000000000000000000000000000600052604160045260246000fd5b610c038261099d565b810181811067ffffffffffffffff82111715610c2257610c21610bcb565b5b80604052505050565b6000610c3561081c565b9050610c418282610bfa565b919050565b600067ffffffffffffffff821115610c6157610c60610bcb565b5b610c6a8261099d565b9050602081019050919050565b82818337600083830152505050565b6000610c99610c9484610c46565b610c2b565b905082815260208101848484011115610cb557610cb4610bc6565b5b610cc0848285610c77565b509392505050565b600082601f830112610cdd57610cdc610bc1565b5b8135610ced848260208601610c86565b91505092915050565b600060208284031215610d0c57610d0b610826565b5b600082013567ffffffffffffffff811115610d2a57610d2961082b565b5b610d3684828501610cc8565b91505092915050565b6000602082019050610d546000830184610948565b92915050565b7f4e487b7100000000000000000000000000000000000000000000000000000000600052602260045260246000fd5b60006002820490506001821680610da157607f821691505b602082108103610db457610db3610d5a565b5b50919050565b7f4f6e6c7920746865206f776e65722063616e20706572666f726d20746869732060008201527f616374696f6e0000000000000000000000000000000000000000000000000000602082015250565b6000610e16602683610962565b9150610e2182610dba565b604082019050919050565b60006020820190508181036000830152610e4581610e09565b9050919050565b60008190508160005260206000209050919050565b60006020601f8301049050919050565b600082821b905092915050565b600060088302610eae7fffffffffffffffffffffffffffffffffffffffffffffffffffffffffffffffff82610e71565b610eb88683610e71565b95508019841693508086168417925050509392505050565b6000819050919050565b6000610ef5610ef0610eeb846108bb565b610ed0565b6108bb565b9050919050565b6000819050919050565b610f0f83610eda565b610f23610f1b82610efc565b848454610e7e565b825550505050565b600090565b610f38610f2b565b610f43818484610f06565b505050565b5b81811015610f6757610f5c600082610f30565b600181019050610f49565b5050565b601f821115610fac57610f7d81610e4c565b610f8684610e61565b81016020851015610f95578190505b610fa9610fa185610e61565b830182610f48565b50505b505050565b600082821c905092915050565b6000610fcf60001984600802610fb1565b1980831691505092915050565b6000610fe88383610fbe565b9150826002028217905092915050565b61100182610957565b67ffffffffffffffff81111561101a57611019610bcb565b5b6110248254610d89565b61102f828285610f6b565b600060209050601f8311600181146110625760008415611050578287015190505b61105a8582610fdc565b8655506110c2565b601f19841661107086610e4c565b60005b8281101561109857848901518255600182019150602085019450602081019050611073565b868310156110b557848901516110b1601f891682610fbe565b8355505b6001600288020188555050505b505050505050565b7f4e487b7100000000000000000000000000000000000000000000000000000000600052601160045260246000fd5b6000611104826108bb565b915061110f836108bb565b9250828201905080821115611127576111266110ca565b5b92915050565b6000604082019050818103600083015261114781856109ae565b905061115660208301846108c5565b9392505050565b7f436f6e747269627574696f6e20646f6573206e6f742065786973742e00000000600082015250565b6000611193601c83610962565b915061119e8261115d565b602082019050919050565b600060208201905081810360008301526111c281611186565b9050919050565b7f4e487b7100000000000000000000000000000000000000000000000000000000600052603260045260246000fdfea2646970667358221220c475ecd8c89d36a0c1416bc7567206c0182d95b6c4db5211958cf6b716cbe9f564736f6c634300081c0033",
  "linkReferences": {},
  "deployedLinkReferences": {}
}