{
  "_format": "hh-sol-artifact-1",
  "contractName": "PayToReadMore",
  "sourceName": "Contracts/pay-to-watch.sol",
  "abi": [
    {
      "anonymous": false,
      "inputs": [
        {
          "indexed": true,
          "internalType": "address",
          "name": "user",
          "type": "address"
        },
        {
          "indexed": false,
          "internalType": "uint256",
          "name": "chapterIndex",
          "type": "uint256"
        },
        {
          "indexed": false,
          "internalType": "uint256",
          "name": "amountPaid",
          "type": "uint256"
        }
      ],
      "name": "ChapterUnlocked",
      "type": "event"
    },
    {
      "inputs": [
        {
          "internalType": "string",
          "name": "content",
          "type": "string"
        },
        {
          "internalType": "uint256",
          "name": "price",
          "type": "uint256"
        }
      ],
      "name": "addChapter",
      "outputs": [],
      "stateMutability": "nonpayable",
      "type": "function"
    },
    {
      "inputs": [
        {
          "internalType": "uint256",
          "name": "",
          "type": "uint256"
        }
      ],
      "name": "chapters",
      "outputs": [
        {
          "internalType": "address",
          "name": "author",
          "type": "address"
        },
        {
          "internalType": "string",
          "name": "content",
          "type": "string"
        },
        {
          "internalType": "uint256",
          "name": "price",
          "type": "uint256"
        },
        {
          "internalType": "uint256",
          "name": "timestamp",
          "type": "uint256"
        },
        {
          "internalType": "bool",
          "name": "isUnlocked",
          "type": "bool"
        }
      ],
      "stateMutability": "view",
      "type": "function"
    },
    {
      "inputs": [
        {
          "internalType": "uint256",
          "name": "chapterIndex",
          "type": "uint256"
        }
      ],
      "name": "getChapter",
      "outputs": [
        {
          "internalType": "address",
          "name": "author",
          "type": "address"
        },
        {
          "internalType": "string",
          "name": "content",
          "type": "string"
        },
        {
          "internalType": "uint256",
          "name": "price",
          "type": "uint256"
        },
        {
          "internalType": "uint256",
          "name": "timestamp",
          "type": "uint256"
        },
        {
          "internalType": "bool",
          "name": "isUnlocked",
          "type": "bool"
        }
      ],
      "stateMutability": "view",
      "type": "function"
    },
    {
      "inputs": [],
      "name": "getTotalChapters",
      "outputs": [
        {
          "internalType": "uint256",
          "name": "",
          "type": "uint256"
        }
      ],
      "stateMutability": "view",
      "type": "function"
    },
    {
      "inputs": [
        {
          "internalType": "address",
          "name": "user",
          "type": "address"
        },
        {
          "internalType": "uint256",
          "name": "chapterIndex",
          "type": "uint256"
        }
      ],
      "name": "hasUnlockedChapter",
      "outputs": [
        {
          "internalType": "bool",
          "name": "",
          "type": "bool"
        }
      ],
      "stateMutability": "view",
      "type": "function"
    },
    {
      "inputs": [
        {
          "internalType": "uint256",
          "name": "chapterIndex",
          "type": "uint256"
        }
      ],
      "name": "unlockChapter",
      "outputs": [],
      "stateMutability": "payable",
      "type": "function"
    },
    {
      "inputs": [
        {
          "internalType": "address",
          "name": "",
          "type": "address"
        },
        {
          "internalType": "uint256",
          "name": "",
          "type": "uint256"
        }
      ],
      "name": "userUnlockedChapters",
      "outputs": [
        {
          "internalType": "bool",
          "name": "",
          "type": "bool"
        }
      ],
      "stateMutability": "view",
      "type": "function"
    }
  ],
  "bytecode": "0x6080604052348015600f57600080fd5b506111688061001f6000396000f3fe6080604052600436106100705760003560e01c806399f7b5671161004e57806399f7b567146100f9578063bf6b623d1461013a578063c0ed916214610163578063f40adb12146101a057610070565b806356387a9c146100755780635dfdc1bd146100915780637e71d5d2146100bc575b600080fd5b61008f600480360381019061008a91906108dd565b6101e1565b005b34801561009d57600080fd5b506100a661042a565b6040516100b39190610919565b60405180910390f35b3480156100c857600080fd5b506100e360048036038101906100de9190610992565b610436565b6040516100f091906109ed565b60405180910390f35b34801561010557600080fd5b50610120600480360381019061011b91906108dd565b610465565b604051610131959493929190610aa7565b60405180910390f35b34801561014657600080fd5b50610161600480360381019061015c9190610c36565b610628565b005b34801561016f57600080fd5b5061018a60048036038101906101859190610992565b610730565b60405161019791906109ed565b60405180910390f35b3480156101ac57600080fd5b506101c760048036038101906101c291906108dd565b610798565b6040516101d8959493929190610aa7565b60405180910390f35b6000805490508110610228576040517f08c379a000000000000000000000000000000000000000000000000000000000815260040161021f90610cde565b60405180910390fd5b600080828154811061023d5761023c610cfe565b5b906000526020600020906005020190508060040160009054906101000a900460ff161561029f576040517f08c379a000000000000000000000000000000000000000000000000000000000815260040161029690610d79565b60405180910390fd5b80600201543410156102e6576040517f08c379a00000000000000000000000000000000000000000000000000000000081526004016102dd90610e0b565b60405180910390fd5b60018060003373ffffffffffffffffffffffffffffffffffffffff1673ffffffffffffffffffffffffffffffffffffffff168152602001908152602001600020600084815260200190815260200160002060006101000a81548160ff02191690831515021790555060018160040160006101000a81548160ff0219169083151502179055508060000160009054906101000a900473ffffffffffffffffffffffffffffffffffffffff1673ffffffffffffffffffffffffffffffffffffffff166108fc349081150290604051600060405180830381858888f193505050501580156103d5573d6000803e3d6000fd5b503373ffffffffffffffffffffffffffffffffffffffff167f6ec944193ba542209d8298bd4963579bd36cd6e83c95cfbebf3abe7684f683fd833460405161041e929190610e2b565b60405180910390a25050565b60008080549050905090565b60016020528160005260406000206020528060005260406000206000915091509054906101000a900460ff1681565b600060606000806000808054905086106104b4576040517f08c379a00000000000000000000000000000000000000000000000000000000081526004016104ab90610cde565b60405180910390fd5b60008087815481106104c9576104c8610cfe565b5b90600052602060002090600502016040518060a00160405290816000820160009054906101000a900473ffffffffffffffffffffffffffffffffffffffff1673ffffffffffffffffffffffffffffffffffffffff1673ffffffffffffffffffffffffffffffffffffffff16815260200160018201805461054890610e83565b80601f016020809104026020016040519081016040528092919081815260200182805461057490610e83565b80156105c15780601f10610596576101008083540402835291602001916105c1565b820191906000526020600020905b8154815290600101906020018083116105a457829003601f168201915b5050505050815260200160028201548152602001600382015481526020016004820160009054906101000a900460ff161515151581525050905080600001518160200151826040015183606001518460800151955095509550955095505091939590929450565b600042905060006040518060a001604052803373ffffffffffffffffffffffffffffffffffffffff16815260200185815260200184815260200183815260200160001515815250908060018154018082558091505060019003906000526020600020906005020160009091909190915060008201518160000160006101000a81548173ffffffffffffffffffffffffffffffffffffffff021916908373ffffffffffffffffffffffffffffffffffffffff16021790555060208201518160010190816106f49190611060565b50604082015181600201556060820151816003015560808201518160040160006101000a81548160ff0219169083151502179055505050505050565b6000600160008473ffffffffffffffffffffffffffffffffffffffff1673ffffffffffffffffffffffffffffffffffffffff168152602001908152602001600020600083815260200190815260200160002060009054906101000a900460ff16905092915050565b600081815481106107a857600080fd5b90600052602060002090600502016000915090508060000160009054906101000a900473ffffffffffffffffffffffffffffffffffffffff16908060010180546107f190610e83565b80601f016020809104026020016040519081016040528092919081815260200182805461081d90610e83565b801561086a5780601f1061083f5761010080835404028352916020019161086a565b820191906000526020600020905b81548152906001019060200180831161084d57829003601f168201915b5050505050908060020154908060030154908060040160009054906101000a900460ff16905085565b6000604051905090565b600080fd5b600080fd5b6000819050919050565b6108ba816108a7565b81146108c557600080fd5b50565b6000813590506108d7816108b1565b92915050565b6000602082840312156108f3576108f261089d565b5b6000610901848285016108c8565b91505092915050565b610913816108a7565b82525050565b600060208201905061092e600083018461090a565b92915050565b600073ffffffffffffffffffffffffffffffffffffffff82169050919050565b600061095f82610934565b9050919050565b61096f81610954565b811461097a57600080fd5b50565b60008135905061098c81610966565b92915050565b600080604083850312156109a9576109a861089d565b5b60006109b78582860161097d565b92505060206109c8858286016108c8565b9150509250929050565b60008115159050919050565b6109e7816109d2565b82525050565b6000602082019050610a0260008301846109de565b92915050565b610a1181610954565b82525050565b600081519050919050565b600082825260208201905092915050565b60005b83811015610a51578082015181840152602081019050610a36565b60008484015250505050565b6000601f19601f8301169050919050565b6000610a7982610a17565b610a838185610a22565b9350610a93818560208601610a33565b610a9c81610a5d565b840191505092915050565b600060a082019050610abc6000830188610a08565b8181036020830152610ace8187610a6e565b9050610add604083018661090a565b610aea606083018561090a565b610af760808301846109de565b9695505050505050565b600080fd5b600080fd5b7f4e487b7100000000000000000000000000000000000000000000000000000000600052604160045260246000fd5b610b4382610a5d565b810181811067ffffffffffffffff82111715610b6257610b61610b0b565b5b80604052505050565b6000610b75610893565b9050610b818282610b3a565b919050565b600067ffffffffffffffff821115610ba157610ba0610b0b565b5b610baa82610a5d565b9050602081019050919050565b82818337600083830152505050565b6000610bd9610bd484610b86565b610b6b565b905082815260208101848484011115610bf557610bf4610b06565b5b610c00848285610bb7565b509392505050565b600082601f830112610c1d57610c1c610b01565b5b8135610c2d848260208601610bc6565b91505092915050565b60008060408385031215610c4d57610c4c61089d565b5b600083013567ffffffffffffffff811115610c6b57610c6a6108a2565b5b610c7785828601610c08565b9250506020610c88858286016108c8565b9150509250929050565b7f4368617074657220646f6573206e6f742065786973742e000000000000000000600082015250565b6000610cc8601783610a22565b9150610cd382610c92565b602082019050919050565b60006020820190508181036000830152610cf781610cbb565b9050919050565b7f4e487b7100000000000000000000000000000000000000000000000000000000600052603260045260246000fd5b7f4368617074657220616c726561647920756e6c6f636b65642e00000000000000600082015250565b6000610d63601983610a22565b9150610d6e82610d2d565b602082019050919050565b60006020820190508181036000830152610d9281610d56565b9050919050565b7f496e73756666696369656e742066756e647320746f20756e6c6f636b2063686160008201527f707465722e000000000000000000000000000000000000000000000000000000602082015250565b6000610df5602583610a22565b9150610e0082610d99565b604082019050919050565b60006020820190508181036000830152610e2481610de8565b9050919050565b6000604082019050610e40600083018561090a565b610e4d602083018461090a565b9392505050565b7f4e487b7100000000000000000000000000000000000000000000000000000000600052602260045260246000fd5b60006002820490506001821680610e9b57607f821691505b602082108103610eae57610ead610e54565b5b50919050565b60008190508160005260206000209050919050565b60006020601f8301049050919050565b600082821b905092915050565b600060088302610f167fffffffffffffffffffffffffffffffffffffffffffffffffffffffffffffffff82610ed9565b610f208683610ed9565b95508019841693508086168417925050509392505050565b6000819050919050565b6000610f5d610f58610f53846108a7565b610f38565b6108a7565b9050919050565b6000819050919050565b610f7783610f42565b610f8b610f8382610f64565b848454610ee6565b825550505050565b600090565b610fa0610f93565b610fab818484610f6e565b505050565b5b81811015610fcf57610fc4600082610f98565b600181019050610fb1565b5050565b601f82111561101457610fe581610eb4565b610fee84610ec9565b81016020851015610ffd578190505b61101161100985610ec9565b830182610fb0565b50505b505050565b600082821c905092915050565b600061103760001984600802611019565b1980831691505092915050565b60006110508383611026565b9150826002028217905092915050565b61106982610a17565b67ffffffffffffffff81111561108257611081610b0b565b5b61108c8254610e83565b611097828285610fd3565b600060209050601f8311600181146110ca57600084156110b8578287015190505b6110c28582611044565b86555061112a565b601f1984166110d886610eb4565b60005b82811015611100578489015182556001820191506020850194506020810190506110db565b8683101561111d5784890151611119601f891682611026565b8355505b6001600288020188555050505b50505050505056fea2646970667358221220ad88413e0b17061c73397050f2586ed2f0bf8aec8e871b558cd4dfc589ba4d0564736f6c634300081c0033",
  "linkReferences": {},
  "deployedLinkReferences": {}
}